{
  "contractName": "ChallengeJourney_75",
  "abi": [
    {
      "inputs": [],
      "stateMutability": "nonpayable",
      "type": "constructor"
    },
    {
      "anonymous": false,
      "inputs": [
        {
          "indexed": false,
          "internalType": "string",
          "name": "update",
          "type": "string"
        },
        {
          "indexed": false,
          "internalType": "uint256",
          "name": "timestamp",
          "type": "uint256"
        }
      ],
      "name": "ProgressUpdate",
      "type": "event"
    },
    {
      "inputs": [],
      "name": "owner",
      "outputs": [
        {
          "internalType": "address",
          "name": "",
          "type": "address"
        }
      ],
      "stateMutability": "view",
      "type": "function",
      "constant": true
    },
    {
      "inputs": [
        {
          "internalType": "uint256",
          "name": "",
          "type": "uint256"
        }
      ],
      "name": "progressUpdates",
      "outputs": [
        {
          "internalType": "string",
          "name": "",
          "type": "string"
        }
      ],
      "stateMutability": "view",
      "type": "function",
      "constant": true
    },
    {
      "inputs": [
        {
          "internalType": "string",
          "name": "update",
          "type": "string"
        }
      ],
      "name": "addProgressUpdate",
      "outputs": [],
      "stateMutability": "nonpayable",
      "type": "function"
    },
    {
      "inputs": [],
      "name": "getProgressCount",
      "outputs": [
        {
          "internalType": "uint256",
          "name": "",
          "type": "uint256"
        }
      ],
      "stateMutability": "view",
      "type": "function",
      "constant": true
    }
  ],
  "bytecode": "0x608060405234801561001057600080fd5b50336000806101000a81548173ffffffffffffffffffffffffffffffffffffffff021916908373ffffffffffffffffffffffffffffffffffffffff160217905550610794806100606000396000f3fe608060405234801561001057600080fd5b506004361061004c5760003560e01c80635f8f38ca146100515780638da5cb5b1461006f578063d86a5e511461008d578063ff5c4c0f146100bd575b600080fd5b6100596100d9565b6040516100669190610590565b60405180910390f35b6100776100e6565b6040516100849190610503565b60405180910390f35b6100a760048036038101906100a2919061041d565b61010a565b6040516100b4919061051e565b60405180910390f35b6100d760048036038101906100d291906103dc565b6101b6565b005b6000600180549050905090565b60008054906101000a900473ffffffffffffffffffffffffffffffffffffffff1681565b6001818154811061011a57600080fd5b906000526020600020016000915090508054610135906106a6565b80601f0160208091040260200160405190810160405280929190818152602001828054610161906106a6565b80156101ae5780601f10610183576101008083540402835291602001916101ae565b820191906000526020600020905b81548152906001019060200180831161019157829003601f168201915b505050505081565b60008054906101000a900473ffffffffffffffffffffffffffffffffffffffff1673ffffffffffffffffffffffffffffffffffffffff163373ffffffffffffffffffffffffffffffffffffffff1614610244576040517f08c379a000000000000000000000000000000000000000000000000000000000815260040161023b90610570565b60405180910390fd5b60018190806001815401808255809150506001900390600052602060002001600090919091909150908051906020019061027f9291906102bc565b507f02dacb0d998da59247792b5afba2d3b7bc0fd72088d1f2a3438459cf259f4f3881426040516102b1929190610540565b60405180910390a150565b8280546102c8906106a6565b90600052602060002090601f0160209004810192826102ea5760008555610331565b82601f1061030357805160ff1916838001178555610331565b82800160010185558215610331579182015b82811115610330578251825591602001919060010190610315565b5b50905061033e9190610342565b5090565b5b8082111561035b576000816000905550600101610343565b5090565b600061037261036d846105dc565b6105ab565b90508281526020810184848401111561038a57600080fd5b610395848285610664565b509392505050565b600082601f8301126103ae57600080fd5b81356103be84826020860161035f565b91505092915050565b6000813590506103d681610747565b92915050565b6000602082840312156103ee57600080fd5b600082013567ffffffffffffffff81111561040857600080fd5b6104148482850161039d565b91505092915050565b60006020828403121561042f57600080fd5b600061043d848285016103c7565b91505092915050565b61044f81610628565b82525050565b60006104608261060c565b61046a8185610617565b935061047a818560208601610673565b61048381610736565b840191505092915050565b600061049b602783610617565b91507f4f6e6c7920746865206f776e65722063616e206164642070726f67726573732060008301527f75706461746573000000000000000000000000000000000000000000000000006020830152604082019050919050565b6104fd8161065a565b82525050565b60006020820190506105186000830184610446565b92915050565b600060208201905081810360008301526105388184610455565b905092915050565b6000604082019050818103600083015261055a8185610455565b905061056960208301846104f4565b9392505050565b600060208201905081810360008301526105898161048e565b9050919050565b60006020820190506105a560008301846104f4565b92915050565b6000604051905081810181811067ffffffffffffffff821117156105d2576105d1610707565b5b8060405250919050565b600067ffffffffffffffff8211156105f7576105f6610707565b5b601f19601f8301169050602081019050919050565b600081519050919050565b600082825260208201905092915050565b60006106338261063a565b9050919050565b600073ffffffffffffffffffffffffffffffffffffffff82169050919050565b6000819050919050565b82818337600083830152505050565b60005b83811015610691578082015181840152602081019050610676565b838111156106a0576000848401525b50505050565b600060028204905060018216806106be57607f821691505b602082108114156106d2576106d16106d8565b5b50919050565b7f4e487b7100000000000000000000000000000000000000000000000000000000600052602260045260246000fd5b7f4e487b7100000000000000000000000000000000000000000000000000000000600052604160045260246000fd5b6000601f19601f8301169050919050565b6107508161065a565b811461075b57600080fd5b5056fea2646970667358221220a5d29ae384e8d9112dfc044754e6937f2b39d6c53e494a5c4f13f4536c9a888664736f6c63430008000033",
  "immutableReferences": {},
  "source": "// SPDX-License-Identifier: MIT\r\npragma solidity ^0.8.0;\r\n\r\ncontract ChallengeJourney_75 {\r\n    address public owner; // Address of the contract owner\r\n    string[] public progressUpdates; // An array to store daily progress updates\r\n    \r\n    // Event to log new progress updates\r\n    event ProgressUpdate(string update, uint256 timestamp);\r\n\r\n    constructor() {\r\n        owner = msg.sender; // Set the contract owner to the address that deploys the contract\r\n    }\r\n\r\n    // Modifier to ensure only the owner can add progress updates\r\n    modifier onlyOwner() {\r\n        require(msg.sender == owner, \"Only the owner can add progress updates\");\r\n        _;\r\n    }\r\n\r\n    // Function to add a daily progress update\r\n    function addProgressUpdate(string memory update) public onlyOwner {\r\n        progressUpdates.push(update);\r\n        emit ProgressUpdate(update, block.timestamp);\r\n    }\r\n\r\n    // Function to get the total number of progress updates\r\n    function getProgressCount() public view returns (uint256) {\r\n        return progressUpdates.length;\r\n    }\r\n}\r\n",
  "sourcePath": "E:\\Angilina Julie\\ChallengeJouney_75\\contracts\\ChallengeJournery_75.sol",
  "compiler": {
    "name": "solc",
    "version": "0.8.0+commit.c7dfd78e.Emscripten.clang"
  },
  "schemaVersion": "3.4.16",
  "updatedAt": "2023-09-23T19:14:53.852Z",
  "networkType": "ethereum",
  "devdoc": {
    "kind": "dev",
    "methods": {},
    "version": 1
  },
  "userdoc": {
    "kind": "user",
    "methods": {},
    "version": 1
  }
}